{
  "contractName": "TodoList",
  "abi": [
    {
      "inputs": [],
      "stateMutability": "nonpayable",
      "type": "constructor"
    },
    {
      "anonymous": false,
      "inputs": [
        {
          "indexed": false,
          "internalType": "uint256",
          "name": "id",
          "type": "uint256"
        },
        {
          "indexed": false,
          "internalType": "bool",
          "name": "completed",
          "type": "bool"
        }
      ],
      "name": "TaskCompleted",
      "type": "event"
    },
    {
      "anonymous": false,
      "inputs": [
        {
          "indexed": false,
          "internalType": "uint256",
          "name": "id",
          "type": "uint256"
        },
        {
          "indexed": false,
          "internalType": "string",
          "name": "content",
          "type": "string"
        },
        {
          "indexed": false,
          "internalType": "bool",
          "name": "completed",
          "type": "bool"
        }
      ],
      "name": "TaskCreated",
      "type": "event"
    },
    {
      "anonymous": false,
      "inputs": [
        {
          "indexed": false,
          "internalType": "uint256",
          "name": "id",
          "type": "uint256"
        },
        {
          "indexed": false,
          "internalType": "string",
          "name": "content",
          "type": "string"
        }
      ],
      "name": "TaskUpdated",
      "type": "event"
    },
    {
      "inputs": [],
      "name": "taskCount",
      "outputs": [
        {
          "internalType": "uint256",
          "name": "",
          "type": "uint256"
        }
      ],
      "stateMutability": "view",
      "type": "function",
      "constant": true
    },
    {
      "inputs": [
        {
          "internalType": "uint256",
          "name": "",
          "type": "uint256"
        }
      ],
      "name": "tasks",
      "outputs": [
        {
          "internalType": "uint256",
          "name": "id",
          "type": "uint256"
        },
        {
          "internalType": "string",
          "name": "content",
          "type": "string"
        },
        {
          "internalType": "bool",
          "name": "completed",
          "type": "bool"
        }
      ],
      "stateMutability": "view",
      "type": "function",
      "constant": true
    },
    {
      "inputs": [
        {
          "internalType": "string",
          "name": "_content",
          "type": "string"
        }
      ],
      "name": "createTask",
      "outputs": [],
      "stateMutability": "nonpayable",
      "type": "function"
    },
    {
      "inputs": [
        {
          "internalType": "uint256",
          "name": "_id",
          "type": "uint256"
        }
      ],
      "name": "completeTask",
      "outputs": [],
      "stateMutability": "nonpayable",
      "type": "function"
    },
    {
      "inputs": [
        {
          "internalType": "uint256",
          "name": "_id",
          "type": "uint256"
        },
        {
          "internalType": "string",
          "name": "_content",
          "type": "string"
        }
      ],
      "name": "updateTask",
      "outputs": [],
      "stateMutability": "nonpayable",
      "type": "function"
    },
    {
      "inputs": [
        {
          "internalType": "uint256",
          "name": "_id",
          "type": "uint256"
        }
      ],
      "name": "deleteTask",
      "outputs": [],
      "stateMutability": "nonpayable",
      "type": "function"
    }
  ],
  "bytecode": "0x608060405234801561001057600080fd5b506000600181905550610947806100286000396000f3fe608060405234801561001057600080fd5b50600436106100625760003560e01c8063111002aa14610067578063560f31921461008357806386533f6c1461009f5780638d977672146100bb578063b6cb58a5146100ed578063e1e295581461010b575b600080fd5b610081600480360381019061007c9190610545565b610127565b005b61009d60048036038101906100989190610586565b6101fe565b005b6100b960048036038101906100b491906105af565b610242565b005b6100d560048036038101906100d09190610586565b6102af565b6040516100e4939291906106ce565b60405180910390f35b6100f561036e565b604051610102919061065a565b60405180910390f35b61012560048036038101906101209190610586565b610374565b005b6001600081548092919061013a90610813565b9190505550604051806060016040528060015481526020018281526020016000151581525060008060015481526020019081526020016000206000820151816000015560208201518160010190805190602001906101999291906103e5565b5060408201518160020160006101000a81548160ff0219169083151502179055509050507f05d0fb833127fc08168556d0e7ca9554fc3f6bc843b3b7d2bf1c35aea6bab6606001548260006040516101f3939291906106ce565b60405180910390a150565b600080828152602001908152602001600020600080820160009055600182016000610229919061046b565b6002820160006101000a81549060ff0219169055505050565b60008060008481526020019081526020016000209050818160010190805190602001906102709291906103e5565b507fde038a66d64727fc277f5f5f3d50b98d205e4ae705bfb8ac824cea4877b9be4983836040516102a292919061069e565b60405180910390a1505050565b60006020528060005260406000206000915090508060000154908060010180546102d8906107e1565b80601f0160208091040260200160405190810160405280929190818152602001828054610304906107e1565b80156103515780601f1061032657610100808354040283529160200191610351565b820191906000526020600020905b81548152906001019060200180831161033457829003601f168201915b5050505050908060020160009054906101000a900460ff16905083565b60015481565b6000806000838152602001908152602001600020905060018160020160006101000a81548160ff0219169083151502179055507fe21fa966ca5cd02748c0752352d18c48165e61cb55b4c29cccf924b5a95fcff18260016040516103d9929190610675565b60405180910390a15050565b8280546103f1906107e1565b90600052602060002090601f016020900481019282610413576000855561045a565b82601f1061042c57805160ff191683800117855561045a565b8280016001018555821561045a579182015b8281111561045957825182559160200191906001019061043e565b5b50905061046791906104ab565b5090565b508054610477906107e1565b6000825580601f1061048957506104a8565b601f0160209004906000526020600020908101906104a791906104ab565b5b50565b5b808211156104c45760008160009055506001016104ac565b5090565b60006104db6104d68461073d565b61070c565b9050828152602081018484840111156104f357600080fd5b6104fe84828561079f565b509392505050565b600082601f83011261051757600080fd5b81356105278482602086016104c8565b91505092915050565b60008135905061053f816108fa565b92915050565b60006020828403121561055757600080fd5b600082013567ffffffffffffffff81111561057157600080fd5b61057d84828501610506565b91505092915050565b60006020828403121561059857600080fd5b60006105a684828501610530565b91505092915050565b600080604083850312156105c257600080fd5b60006105d085828601610530565b925050602083013567ffffffffffffffff8111156105ed57600080fd5b6105f985828601610506565b9150509250929050565b61060c81610789565b82525050565b600061061d8261076d565b6106278185610778565b93506106378185602086016107ae565b610640816108e9565b840191505092915050565b61065481610795565b82525050565b600060208201905061066f600083018461064b565b92915050565b600060408201905061068a600083018561064b565b6106976020830184610603565b9392505050565b60006040820190506106b3600083018561064b565b81810360208301526106c58184610612565b90509392505050565b60006060820190506106e3600083018661064b565b81810360208301526106f58185610612565b90506107046040830184610603565b949350505050565b6000604051905081810181811067ffffffffffffffff82111715610733576107326108ba565b5b8060405250919050565b600067ffffffffffffffff821115610758576107576108ba565b5b601f19601f8301169050602081019050919050565b600081519050919050565b600082825260208201905092915050565b60008115159050919050565b6000819050919050565b82818337600083830152505050565b60005b838110156107cc5780820151818401526020810190506107b1565b838111156107db576000848401525b50505050565b600060028204905060018216806107f957607f821691505b6020821081141561080d5761080c61088b565b5b50919050565b600061081e82610795565b91507fffffffffffffffffffffffffffffffffffffffffffffffffffffffffffffffff8214156108515761085061085c565b5b600182019050919050565b7f4e487b7100000000000000000000000000000000000000000000000000000000600052601160045260246000fd5b7f4e487b7100000000000000000000000000000000000000000000000000000000600052602260045260246000fd5b7f4e487b7100000000000000000000000000000000000000000000000000000000600052604160045260246000fd5b6000601f19601f8301169050919050565b61090381610795565b811461090e57600080fd5b5056fea26469706673582212200a49cc3d1848b99cfa0c6a619f6f3afa8bc894da04cfe3b78dde06768551452f64736f6c63430008000033",
  "immutableReferences": {},
  "source": "// SPDX-License-Identifier: MIT\npragma solidity ^0.8.0;\n\ncontract TodoList {\n    struct Task {\n        uint id;\n        string content;\n        bool completed;\n    }\n\n    mapping(uint => Task) public tasks;\n    uint public taskCount;\n\n    event TaskCreated(uint id, string content, bool completed);\n    event TaskCompleted(uint id, bool completed);\n    event TaskUpdated(uint id, string content);\n\n    constructor() {\n        taskCount = 0;\n    }\n\n    function createTask(string memory _content) public {\n        taskCount++;\n        tasks[taskCount] = Task(taskCount, _content, false);\n        emit TaskCreated(taskCount, _content, false);\n    }\n\n    function completeTask(uint _id) public {\n        Task storage task = tasks[_id];\n        task.completed = true;\n        emit TaskCompleted(_id, true);\n    }\n\n    function updateTask(uint _id, string memory _content) public {\n        Task storage task = tasks[_id];\n        task.content = _content;\n        emit TaskUpdated(_id, _content);\n    }\n\n    function deleteTask(uint _id) public {\n        delete tasks[_id];\n    }\n}\n",
  "sourcePath": "E:\\9808 BCT\\todo-dapp\\contracts\\TodoList.sol",
  "compiler": {
    "name": "solc",
    "version": "0.8.0+commit.c7dfd78e.Emscripten.clang"
  },
  "schemaVersion": "3.4.16",
  "updatedAt": "2024-11-02T15:14:55.302Z",
  "networkType": "ethereum",
  "devdoc": {
    "kind": "dev",
    "methods": {},
    "version": 1
  },
  "userdoc": {
    "kind": "user",
    "methods": {},
    "version": 1
  }
}